{
  "_format": "hh-sol-artifact-1",
  "contractName": "TokenVesting",
  "sourceName": "contracts/TokenVesting.sol",
  "abi": [
    {
      "inputs": [
        {
          "internalType": "address",
          "name": "tokenAddress",
          "type": "address"
        }
      ],
      "stateMutability": "nonpayable",
      "type": "constructor"
    },
    {
      "anonymous": false,
      "inputs": [
        {
          "indexed": true,
          "internalType": "bytes32",
          "name": "role",
          "type": "bytes32"
        },
        {
          "indexed": true,
          "internalType": "bytes32",
          "name": "previousAdminRole",
          "type": "bytes32"
        },
        {
          "indexed": true,
          "internalType": "bytes32",
          "name": "newAdminRole",
          "type": "bytes32"
        }
      ],
      "name": "RoleAdminChanged",
      "type": "event"
    },
    {
      "anonymous": false,
      "inputs": [
        {
          "indexed": true,
          "internalType": "bytes32",
          "name": "role",
          "type": "bytes32"
        },
        {
          "indexed": true,
          "internalType": "address",
          "name": "account",
          "type": "address"
        },
        {
          "indexed": true,
          "internalType": "address",
          "name": "sender",
          "type": "address"
        }
      ],
      "name": "RoleGranted",
      "type": "event"
    },
    {
      "anonymous": false,
      "inputs": [
        {
          "indexed": true,
          "internalType": "bytes32",
          "name": "role",
          "type": "bytes32"
        },
        {
          "indexed": true,
          "internalType": "address",
          "name": "account",
          "type": "address"
        },
        {
          "indexed": true,
          "internalType": "address",
          "name": "sender",
          "type": "address"
        }
      ],
      "name": "RoleRevoked",
      "type": "event"
    },
    {
      "anonymous": false,
      "inputs": [
        {
          "indexed": false,
          "internalType": "bytes32",
          "name": "vestingId",
          "type": "bytes32"
        },
        {
          "indexed": false,
          "internalType": "address",
          "name": "beneficiary",
          "type": "address"
        },
        {
          "indexed": false,
          "internalType": "uint256",
          "name": "amount",
          "type": "uint256"
        }
      ],
      "name": "TokensReleased",
      "type": "event"
    },
    {
      "anonymous": false,
      "inputs": [
        {
          "indexed": false,
          "internalType": "bytes32",
          "name": "vestingId",
          "type": "bytes32"
        },
        {
          "indexed": false,
          "internalType": "address",
          "name": "beneficiary",
          "type": "address"
        },
        {
          "indexed": false,
          "internalType": "uint256",
          "name": "returnedAmount",
          "type": "uint256"
        }
      ],
      "name": "VestingRevoked",
      "type": "event"
    },
    {
      "anonymous": false,
      "inputs": [
        {
          "indexed": false,
          "internalType": "bytes32",
          "name": "vestingId",
          "type": "bytes32"
        },
        {
          "indexed": false,
          "internalType": "address",
          "name": "beneficiary",
          "type": "address"
        },
        {
          "indexed": false,
          "internalType": "uint256",
          "name": "amount",
          "type": "uint256"
        }
      ],
      "name": "VestingScheduleCreated",
      "type": "event"
    },
    {
      "inputs": [],
      "name": "ADMIN_ROLE",
      "outputs": [
        {
          "internalType": "bytes32",
          "name": "",
          "type": "bytes32"
        }
      ],
      "stateMutability": "view",
      "type": "function"
    },
    {
      "inputs": [],
      "name": "DEFAULT_ADMIN_ROLE",
      "outputs": [
        {
          "internalType": "bytes32",
          "name": "",
          "type": "bytes32"
        }
      ],
      "stateMutability": "view",
      "type": "function"
    },
    {
      "inputs": [],
      "name": "activeSchedulesCount",
      "outputs": [
        {
          "internalType": "uint256",
          "name": "",
          "type": "uint256"
        }
      ],
      "stateMutability": "view",
      "type": "function"
    },
    {
      "inputs": [
        {
          "components": [
            {
              "internalType": "bool",
              "name": "initialized",
              "type": "bool"
            },
            {
              "internalType": "address",
              "name": "beneficiary",
              "type": "address"
            },
            {
              "internalType": "uint256",
              "name": "totalAmount",
              "type": "uint256"
            },
            {
              "internalType": "uint256",
              "name": "released",
              "type": "uint256"
            },
            {
              "internalType": "uint64",
              "name": "start",
              "type": "uint64"
            },
            {
              "internalType": "uint64",
              "name": "cliff",
              "type": "uint64"
            },
            {
              "internalType": "uint64",
              "name": "duration",
              "type": "uint64"
            },
            {
              "internalType": "bool",
              "name": "revoked",
              "type": "bool"
            },
            {
              "internalType": "uint256",
              "name": "vestedAtRevocation",
              "type": "uint256"
            }
          ],
          "internalType": "struct TokenVesting.VestingSchedule",
          "name": "schedule",
          "type": "tuple"
        }
      ],
      "name": "computeReleasableAmount",
      "outputs": [
        {
          "internalType": "uint256",
          "name": "",
          "type": "uint256"
        }
      ],
      "stateMutability": "view",
      "type": "function"
    },
    {
      "inputs": [
        {
          "internalType": "address",
          "name": "holder",
          "type": "address"
        },
        {
          "internalType": "uint256",
          "name": "index",
          "type": "uint256"
        }
      ],
      "name": "computeVestingIdForAddressAndIndex",
      "outputs": [
        {
          "internalType": "bytes32",
          "name": "",
          "type": "bytes32"
        }
      ],
      "stateMutability": "pure",
      "type": "function"
    },
    {
      "inputs": [
        {
          "internalType": "address",
          "name": "beneficiary",
          "type": "address"
        },
        {
          "internalType": "uint256",
          "name": "amount",
          "type": "uint256"
        },
        {
          "internalType": "uint64",
          "name": "start",
          "type": "uint64"
        },
        {
          "internalType": "uint64",
          "name": "cliffDuration",
          "type": "uint64"
        },
        {
          "internalType": "uint64",
          "name": "duration",
          "type": "uint64"
        }
      ],
      "name": "createVestingSchedule",
      "outputs": [],
      "stateMutability": "nonpayable",
      "type": "function"
    },
    {
      "inputs": [
        {
          "internalType": "bytes32",
          "name": "role",
          "type": "bytes32"
        }
      ],
      "name": "getRoleAdmin",
      "outputs": [
        {
          "internalType": "bytes32",
          "name": "",
          "type": "bytes32"
        }
      ],
      "stateMutability": "view",
      "type": "function"
    },
    {
      "inputs": [
        {
          "internalType": "address",
          "name": "holder",
          "type": "address"
        },
        {
          "internalType": "uint256",
          "name": "index",
          "type": "uint256"
        }
      ],
      "name": "getVestingIdAtIndex",
      "outputs": [
        {
          "internalType": "bytes32",
          "name": "",
          "type": "bytes32"
        }
      ],
      "stateMutability": "pure",
      "type": "function"
    },
    {
      "inputs": [
        {
          "internalType": "bytes32",
          "name": "vestingId",
          "type": "bytes32"
        }
      ],
      "name": "getVestingSchedule",
      "outputs": [
        {
          "components": [
            {
              "internalType": "bool",
              "name": "initialized",
              "type": "bool"
            },
            {
              "internalType": "address",
              "name": "beneficiary",
              "type": "address"
            },
            {
              "internalType": "uint256",
              "name": "totalAmount",
              "type": "uint256"
            },
            {
              "internalType": "uint256",
              "name": "released",
              "type": "uint256"
            },
            {
              "internalType": "uint64",
              "name": "start",
              "type": "uint64"
            },
            {
              "internalType": "uint64",
              "name": "cliff",
              "type": "uint64"
            },
            {
              "internalType": "uint64",
              "name": "duration",
              "type": "uint64"
            },
            {
              "internalType": "bool",
              "name": "revoked",
              "type": "bool"
            },
            {
              "internalType": "uint256",
              "name": "vestedAtRevocation",
              "type": "uint256"
            }
          ],
          "internalType": "struct TokenVesting.VestingSchedule",
          "name": "",
          "type": "tuple"
        }
      ],
      "stateMutability": "view",
      "type": "function"
    },
    {
      "inputs": [],
      "name": "getWithdrawableAmount",
      "outputs": [
        {
          "internalType": "uint256",
          "name": "",
          "type": "uint256"
        }
      ],
      "stateMutability": "view",
      "type": "function"
    },
    {
      "inputs": [
        {
          "internalType": "bytes32",
          "name": "role",
          "type": "bytes32"
        },
        {
          "internalType": "address",
          "name": "account",
          "type": "address"
        }
      ],
      "name": "grantRole",
      "outputs": [],
      "stateMutability": "nonpayable",
      "type": "function"
    },
    {
      "inputs": [
        {
          "internalType": "bytes32",
          "name": "role",
          "type": "bytes32"
        },
        {
          "internalType": "address",
          "name": "account",
          "type": "address"
        }
      ],
      "name": "hasRole",
      "outputs": [
        {
          "internalType": "bool",
          "name": "",
          "type": "bool"
        }
      ],
      "stateMutability": "view",
      "type": "function"
    },
    {
      "inputs": [
        {
          "internalType": "address",
          "name": "",
          "type": "address"
        }
      ],
      "name": "holdersVestingCount",
      "outputs": [
        {
          "internalType": "uint256",
          "name": "",
          "type": "uint256"
        }
      ],
      "stateMutability": "view",
      "type": "function"
    },
    {
      "inputs": [
        {
          "internalType": "bytes32",
          "name": "vestingId",
          "type": "bytes32"
        }
      ],
      "name": "release",
      "outputs": [],
      "stateMutability": "nonpayable",
      "type": "function"
    },
    {
      "inputs": [
        {
          "internalType": "bytes32",
          "name": "role",
          "type": "bytes32"
        },
        {
          "internalType": "address",
          "name": "account",
          "type": "address"
        }
      ],
      "name": "renounceRole",
      "outputs": [],
      "stateMutability": "nonpayable",
      "type": "function"
    },
    {
      "inputs": [
        {
          "internalType": "bytes32",
          "name": "vestingId",
          "type": "bytes32"
        }
      ],
      "name": "revoke",
      "outputs": [],
      "stateMutability": "nonpayable",
      "type": "function"
    },
    {
      "inputs": [
        {
          "internalType": "bytes32",
          "name": "role",
          "type": "bytes32"
        },
        {
          "internalType": "address",
          "name": "account",
          "type": "address"
        }
      ],
      "name": "revokeRole",
      "outputs": [],
      "stateMutability": "nonpayable",
      "type": "function"
    },
    {
      "inputs": [
        {
          "internalType": "bytes4",
          "name": "interfaceId",
          "type": "bytes4"
        }
      ],
      "name": "supportsInterface",
      "outputs": [
        {
          "internalType": "bool",
          "name": "",
          "type": "bool"
        }
      ],
      "stateMutability": "view",
      "type": "function"
    },
    {
      "inputs": [],
      "name": "token",
      "outputs": [
        {
          "internalType": "contract IERC20",
          "name": "",
          "type": "address"
        }
      ],
      "stateMutability": "view",
      "type": "function"
    },
    {
      "inputs": [],
      "name": "vestingSchedulesCount",
      "outputs": [
        {
          "internalType": "uint256",
          "name": "",
          "type": "uint256"
        }
      ],
      "stateMutability": "view",
      "type": "function"
    },
    {
      "inputs": [],
      "name": "vestingSchedulesTotalAmount",
      "outputs": [
        {
          "internalType": "uint256",
          "name": "",
          "type": "uint256"
        }
      ],
      "stateMutability": "view",
      "type": "function"
    },
    {
      "inputs": [
        {
          "internalType": "uint256",
          "name": "amount",
          "type": "uint256"
        }
      ],
      "name": "withdraw",
      "outputs": [],
      "stateMutability": "nonpayable",
      "type": "function"
    }
  ],
  "bytecode": "0x60a06040523480156200001157600080fd5b50604051620038dd380380620038dd83398181016040528101906200003791906200028d565b600180819055508073ffffffffffffffffffffffffffffffffffffffff1660808173ffffffffffffffffffffffffffffffffffffffff1681525050620000876000801b33620000c060201b60201c565b620000b97fa49807205ce4d355092ef5a8a18f56e8913cf4a201fbe287825b095693c2177533620000c060201b60201c565b50620002bf565b620000d28282620001b160201b60201c565b620001ad57600160008084815260200190815260200160002060000160008373ffffffffffffffffffffffffffffffffffffffff1673ffffffffffffffffffffffffffffffffffffffff16815260200190815260200160002060006101000a81548160ff021916908315150217905550620001526200021b60201b60201c565b73ffffffffffffffffffffffffffffffffffffffff168173ffffffffffffffffffffffffffffffffffffffff16837f2f8788117e7eff1d82e926ec794901d17c78024a50270940304540a733656f0d60405160405180910390a45b5050565b600080600084815260200190815260200160002060000160008373ffffffffffffffffffffffffffffffffffffffff1673ffffffffffffffffffffffffffffffffffffffff16815260200190815260200160002060009054906101000a900460ff16905092915050565b600033905090565b600080fd5b600073ffffffffffffffffffffffffffffffffffffffff82169050919050565b6000620002558262000228565b9050919050565b620002678162000248565b81146200027357600080fd5b50565b60008151905062000287816200025c565b92915050565b600060208284031215620002a657620002a562000223565b5b6000620002b68482850162000276565b91505092915050565b6080516135ed620002f06000396000818161058b01528181610a05015281816110c201526116cd01526135ed6000f3fe608060405234801561001057600080fd5b50600436106101425760003560e01c8063878127ec116100b8578063a217fddf1161007c578063a217fddf1461039b578063b75c7dc6146103b9578063c741d92f146103d5578063d547741f146103f3578063e5fe4dff1461040f578063fc0c546a1461043f57610142565b8063878127ec146102cf57806390be10cc146102ff57806391d148541461031d5780639d8535ad1461034d5780639ef346b41461036b57610142565b80632f2ff15d1161010a5780632f2ff15d1461021157806336568abe1461022d578063471121d11461024957806367d42a8b1461027957806374d424101461029557806375b238fc146102b157610142565b806301ffc9a71461014757806306557d871461017757806319cf0a9414610195578063248a9ca3146101c55780632e1a7d4d146101f5575b600080fd5b610161600480360381019061015c9190612105565b61045d565b60405161016e919061214d565b60405180910390f35b61017f6104d7565b60405161018c9190612181565b60405180910390f35b6101af60048036038101906101aa9190612226565b6104dd565b6040516101bc919061227f565b60405180910390f35b6101df60048036038101906101da91906122c6565b6104f1565b6040516101ec919061227f565b60405180910390f35b61020f600480360381019061020a91906122f3565b610510565b005b61022b60048036038101906102269190612320565b6105d3565b005b61024760048036038101906102429190612320565b6105f4565b005b610263600480360381019061025e9190612360565b610647565b6040516102709190612181565b60405180910390f35b610293600480360381019061028e91906122c6565b61065f565b005b6102af60048036038101906102aa91906123cd565b610ab5565b005b6102b9610f84565b6040516102c6919061227f565b60405180910390f35b6102e960048036038101906102e491906125e5565b610fa8565b6040516102f69190612181565b60405180910390f35b6103076110bb565b6040516103149190612181565b60405180910390f35b61033760048036038101906103329190612320565b611169565b604051610344919061214d565b60405180910390f35b6103556111d3565b6040516103629190612181565b60405180910390f35b610385600480360381019061038091906122c6565b6111d9565b6040516103929190612706565b60405180910390f35b6103a3611347565b6040516103b0919061227f565b60405180910390f35b6103d360048036038101906103ce91906122c6565b61134e565b005b6103dd611671565b6040516103ea9190612181565b60405180910390f35b61040d60048036038101906104089190612320565b611677565b005b61042960048036038101906104249190612226565b611698565b604051610436919061227f565b60405180910390f35b6104476116cb565b6040516104549190612781565b60405180910390f35b60007f7965db0b000000000000000000000000000000000000000000000000000000007bffffffffffffffffffffffffffffffffffffffffffffffffffffffff1916827bffffffffffffffffffffffffffffffffffffffffffffffffffffffff191614806104d057506104cf826116ef565b5b9050919050565b60045481565b60006104e98383611698565b905092915050565b6000806000838152602001908152602001600020600101549050919050565b7fa49807205ce4d355092ef5a8a18f56e8913cf4a201fbe287825b095693c2177561053a81611759565b816105436110bb565b1015610584576040517f08c379a000000000000000000000000000000000000000000000000000000000815260040161057b906127f9565b60405180910390fd5b6105cf33837f000000000000000000000000000000000000000000000000000000000000000073ffffffffffffffffffffffffffffffffffffffff1661176d9092919063ffffffff16565b5050565b6105dc826104f1565b6105e581611759565b6105ef83836117f3565b505050565b6000801b8203610639576040517f08c379a000000000000000000000000000000000000000000000000000000000815260040161063090612865565b60405180910390fd5b61064382826118d3565b5050565b60066020528060005260406000206000915090505481565b610667611956565b60006005600083815260200190815260200160002090508060000160009054906101000a900460ff166106cf576040517f08c379a00000000000000000000000000000000000000000000000000000000081526004016106c6906128d1565b60405180910390fd5b8060000160019054906101000a900473ffffffffffffffffffffffffffffffffffffffff1673ffffffffffffffffffffffffffffffffffffffff163373ffffffffffffffffffffffffffffffffffffffff1614610761576040517f08c379a00000000000000000000000000000000000000000000000000000000081526004016107589061293d565b60405180910390fd5b8060030160189054906101000a900460ff161580610786575080600101548160020154105b6107c5576040517f08c379a00000000000000000000000000000000000000000000000000000000081526004016107bc906129cf565b60405180910390fd5b600061091c82604051806101200160405290816000820160009054906101000a900460ff161515151581526020016000820160019054906101000a900473ffffffffffffffffffffffffffffffffffffffff1673ffffffffffffffffffffffffffffffffffffffff1673ffffffffffffffffffffffffffffffffffffffff16815260200160018201548152602001600282015481526020016003820160009054906101000a900467ffffffffffffffff1667ffffffffffffffff1667ffffffffffffffff1681526020016003820160089054906101000a900467ffffffffffffffff1667ffffffffffffffff1667ffffffffffffffff1681526020016003820160109054906101000a900467ffffffffffffffff1667ffffffffffffffff1667ffffffffffffffff1681526020016003820160189054906101000a900460ff16151515158152602001600482015481525050610fa8565b905060008111610961576040517f08c379a000000000000000000000000000000000000000000000000000000000815260040161095890612a3b565b60405180910390fd5b808260020160008282546109759190612a8a565b92505081905550806002600082825461098e9190612abe565b9250508190555081600101548260020154101580156109bc57508160030160189054906101000a900460ff16155b156109da57600460008154809291906109d490612af2565b91905055505b610a498260000160019054906101000a900473ffffffffffffffffffffffffffffffffffffffff16827f000000000000000000000000000000000000000000000000000000000000000073ffffffffffffffffffffffffffffffffffffffff1661176d9092919063ffffffff16565b7f62eb4bd96d9a7a66875a9f46f9f9d8bf6cfed3fe0578671b752301427d2a4f66838360000160019054906101000a900473ffffffffffffffffffffffffffffffffffffffff1683604051610aa093929190612b2a565b60405180910390a15050610ab26119a5565b50565b7fa49807205ce4d355092ef5a8a18f56e8913cf4a201fbe287825b095693c21775610adf81611759565b600073ffffffffffffffffffffffffffffffffffffffff168673ffffffffffffffffffffffffffffffffffffffff1603610b4e576040517f08c379a0000000000000000000000000000000000000000000000000000000008152600401610b4590612bd3565b60405180910390fd5b60008511610b91576040517f08c379a0000000000000000000000000000000000000000000000000000000008152600401610b8890612c3f565b60405180910390fd5b8167ffffffffffffffff168367ffffffffffffffff161115610be8576040517f08c379a0000000000000000000000000000000000000000000000000000000008152600401610bdf90612cab565b60405180910390fd5b60008267ffffffffffffffff1611610c35576040517f08c379a0000000000000000000000000000000000000000000000000000000008152600401610c2c90612d17565b60405180910390fd5b84610c3e6110bb565b1015610c7f576040517f08c379a0000000000000000000000000000000000000000000000000000000008152600401610c7690612d83565b60405180910390fd5b6000610cca87600660008a73ffffffffffffffffffffffffffffffffffffffff1673ffffffffffffffffffffffffffffffffffffffff16815260200190815260200160002054611698565b905060008486610cda9190612da3565b90506040518061012001604052806001151581526020018973ffffffffffffffffffffffffffffffffffffffff168152602001888152602001600081526020018767ffffffffffffffff1681526020018267ffffffffffffffff1681526020018567ffffffffffffffff16815260200160001515815260200160008152506005600084815260200190815260200160002060008201518160000160006101000a81548160ff02191690831515021790555060208201518160000160016101000a81548173ffffffffffffffffffffffffffffffffffffffff021916908373ffffffffffffffffffffffffffffffffffffffff160217905550604082015181600101556060820151816002015560808201518160030160006101000a81548167ffffffffffffffff021916908367ffffffffffffffff16021790555060a08201518160030160086101000a81548167ffffffffffffffff021916908367ffffffffffffffff16021790555060c08201518160030160106101000a81548167ffffffffffffffff021916908367ffffffffffffffff16021790555060e08201518160030160186101000a81548160ff02191690831515021790555061010082015181600401559050508660026000828254610eb39190612a8a565b9250508190555060036000815480929190610ecd90612ddf565b919050555060046000815480929190610ee590612ddf565b9190505550600660008973ffffffffffffffffffffffffffffffffffffffff1673ffffffffffffffffffffffffffffffffffffffff1681526020019081526020016000206000815480929190610f3a90612ddf565b91905055507ff4173b3b3302c4359c3dd6c9d18f24e03d01b04fb8edd7c3519df6ae162ad839828989604051610f7293929190612b2a565b60405180910390a15050505050505050565b7fa49807205ce4d355092ef5a8a18f56e8913cf4a201fbe287825b095693c2177581565b60008160e0015115610fe957816060015182610100015111610fcd57600090506110b6565b8160600151826101000151610fe29190612abe565b90506110b6565b8160a0015167ffffffffffffffff1642101561100857600090506110b6565b8160c00151826080015161101c9190612da3565b67ffffffffffffffff16421061104757816060015182604001516110409190612abe565b90506110b6565b60008260c0015167ffffffffffffffff16836080015167ffffffffffffffff16426110729190612abe565b84604001516110819190612e27565b61108b9190612e98565b9050826060015181116110a25760009150506110b6565b8260600151816110b29190612abe565b9150505b919050565b60006002547f000000000000000000000000000000000000000000000000000000000000000073ffffffffffffffffffffffffffffffffffffffff166370a08231306040518263ffffffff1660e01b81526004016111199190612ec9565b602060405180830381865afa158015611136573d6000803e3d6000fd5b505050506040513d601f19601f8201168201806040525081019061115a9190612ef9565b6111649190612abe565b905090565b600080600084815260200190815260200160002060000160008373ffffffffffffffffffffffffffffffffffffffff1673ffffffffffffffffffffffffffffffffffffffff16815260200190815260200160002060009054906101000a900460ff16905092915050565b60025481565b6111e161201a565b60056000838152602001908152602001600020604051806101200160405290816000820160009054906101000a900460ff161515151581526020016000820160019054906101000a900473ffffffffffffffffffffffffffffffffffffffff1673ffffffffffffffffffffffffffffffffffffffff1673ffffffffffffffffffffffffffffffffffffffff16815260200160018201548152602001600282015481526020016003820160009054906101000a900467ffffffffffffffff1667ffffffffffffffff1667ffffffffffffffff1681526020016003820160089054906101000a900467ffffffffffffffff1667ffffffffffffffff1667ffffffffffffffff1681526020016003820160109054906101000a900467ffffffffffffffff1667ffffffffffffffff1667ffffffffffffffff1681526020016003820160189054906101000a900460ff161515151581526020016004820154815250509050919050565b6000801b81565b7fa49807205ce4d355092ef5a8a18f56e8913cf4a201fbe287825b095693c2177561137881611759565b60006005600084815260200190815260200160002090508060000160009054906101000a900460ff166113e0576040517f08c379a00000000000000000000000000000000000000000000000000000000081526004016113d7906128d1565b60405180910390fd5b8060030160189054906101000a900460ff1615611432576040517f08c379a000000000000000000000000000000000000000000000000000000000815260040161142990612f72565b60405180910390fd5b600061158982604051806101200160405290816000820160009054906101000a900460ff161515151581526020016000820160019054906101000a900473ffffffffffffffffffffffffffffffffffffffff1673ffffffffffffffffffffffffffffffffffffffff1673ffffffffffffffffffffffffffffffffffffffff16815260200160018201548152602001600282015481526020016003820160009054906101000a900467ffffffffffffffff1667ffffffffffffffff1667ffffffffffffffff1681526020016003820160089054906101000a900467ffffffffffffffff1667ffffffffffffffff1667ffffffffffffffff1681526020016003820160109054906101000a900467ffffffffffffffff1667ffffffffffffffff1667ffffffffffffffff1681526020016003820160189054906101000a900460ff16151515158152602001600482015481525050610fa8565b9050600081836002015461159d9190612a8a565b905060008184600101546115b19190612abe565b905080600260008282546115c59190612abe565b92505081905550600460008154809291906115df90612af2565b919050555081846004018190555060018460030160186101000a81548160ff0219169083151502179055507f9f6990fedd76aa384441d613ac4a0b0283e170692cedbe183d00c41c22ba9832868560000160019054906101000a900473ffffffffffffffffffffffffffffffffffffffff168360405161166193929190612b2a565b60405180910390a1505050505050565b60035481565b611680826104f1565b61168981611759565b61169383836119ae565b505050565b600082826040516020016116ad929190612ffb565b60405160208183030381529060405280519060200120905092915050565b7f000000000000000000000000000000000000000000000000000000000000000081565b60007f01ffc9a7000000000000000000000000000000000000000000000000000000007bffffffffffffffffffffffffffffffffffffffffffffffffffffffff1916827bffffffffffffffffffffffffffffffffffffffffffffffffffffffff1916149050919050565b61176a81611765611a8f565b611a97565b50565b6117ee8363a9059cbb60e01b848460405160240161178c929190613027565b604051602081830303815290604052907bffffffffffffffffffffffffffffffffffffffffffffffffffffffff19166020820180517bffffffffffffffffffffffffffffffffffffffffffffffffffffffff8381831617835250505050611b1c565b505050565b6117fd8282611169565b6118cf57600160008084815260200190815260200160002060000160008373ffffffffffffffffffffffffffffffffffffffff1673ffffffffffffffffffffffffffffffffffffffff16815260200190815260200160002060006101000a81548160ff021916908315150217905550611874611a8f565b73ffffffffffffffffffffffffffffffffffffffff168173ffffffffffffffffffffffffffffffffffffffff16837f2f8788117e7eff1d82e926ec794901d17c78024a50270940304540a733656f0d60405160405180910390a45b5050565b6118db611a8f565b73ffffffffffffffffffffffffffffffffffffffff168173ffffffffffffffffffffffffffffffffffffffff1614611948576040517f08c379a000000000000000000000000000000000000000000000000000000000815260040161193f906130c2565b60405180910390fd5b61195282826119ae565b5050565b60026001540361199b576040517f08c379a00000000000000000000000000000000000000000000000000000000081526004016119929061312e565b60405180910390fd5b6002600181905550565b60018081905550565b6119b88282611169565b15611a8b57600080600084815260200190815260200160002060000160008373ffffffffffffffffffffffffffffffffffffffff1673ffffffffffffffffffffffffffffffffffffffff16815260200190815260200160002060006101000a81548160ff021916908315150217905550611a30611a8f565b73ffffffffffffffffffffffffffffffffffffffff168173ffffffffffffffffffffffffffffffffffffffff16837ff6391f5c32d9c69d2a47ea670b442974b53935d1edc7fd64eb21e047a839171b60405160405180910390a45b5050565b600033905090565b611aa18282611169565b611b1857611aae81611be4565b611abc8360001c6020611c11565b604051602001611acd929190613257565b6040516020818303038152906040526040517f08c379a0000000000000000000000000000000000000000000000000000000008152600401611b0f91906132ca565b60405180910390fd5b5050565b6000611b7e826040518060400160405280602081526020017f5361666545524332303a206c6f772d6c6576656c2063616c6c206661696c65648152508573ffffffffffffffffffffffffffffffffffffffff16611e4d9092919063ffffffff16565b9050600081511480611ba0575080806020019051810190611b9f9190613301565b5b611bdf576040517f08c379a0000000000000000000000000000000000000000000000000000000008152600401611bd6906133a0565b60405180910390fd5b505050565b6060611c0a8273ffffffffffffffffffffffffffffffffffffffff16601460ff16611c11565b9050919050565b606060006002836002611c249190612e27565b611c2e9190612a8a565b67ffffffffffffffff811115611c4757611c4661245e565b5b6040519080825280601f01601f191660200182016040528015611c795781602001600182028036833780820191505090505b5090507f300000000000000000000000000000000000000000000000000000000000000081600081518110611cb157611cb06133c0565b5b60200101907effffffffffffffffffffffffffffffffffffffffffffffffffffffffffffff1916908160001a9053507f780000000000000000000000000000000000000000000000000000000000000081600181518110611d1557611d146133c0565b5b60200101907effffffffffffffffffffffffffffffffffffffffffffffffffffffffffffff1916908160001a90535060006001846002611d559190612e27565b611d5f9190612a8a565b90505b6001811115611dff577f3031323334353637383961626364656600000000000000000000000000000000600f861660108110611da157611da06133c0565b5b1a60f81b828281518110611db857611db76133c0565b5b60200101907effffffffffffffffffffffffffffffffffffffffffffffffffffffffffffff1916908160001a905350600485901c945080611df890612af2565b9050611d62565b5060008414611e43576040517f08c379a0000000000000000000000000000000000000000000000000000000008152600401611e3a9061343b565b60405180910390fd5b8091505092915050565b6060611e5c8484600085611e65565b90509392505050565b606082471015611eaa576040517f08c379a0000000000000000000000000000000000000000000000000000000008152600401611ea1906134cd565b60405180910390fd5b6000808673ffffffffffffffffffffffffffffffffffffffff168587604051611ed39190613534565b60006040518083038185875af1925050503d8060008114611f10576040519150601f19603f3d011682016040523d82523d6000602084013e611f15565b606091505b5091509150611f2687838387611f32565b92505050949350505050565b60608315611f94576000835103611f8c57611f4c85611fa7565b611f8b576040517f08c379a0000000000000000000000000000000000000000000000000000000008152600401611f8290613597565b60405180910390fd5b5b829050611f9f565b611f9e8383611fca565b5b949350505050565b6000808273ffffffffffffffffffffffffffffffffffffffff163b119050919050565b600082511115611fdd5781518083602001fd5b806040517f08c379a000000000000000000000000000000000000000000000000000000000815260040161201191906132ca565b60405180910390fd5b604051806101200160405280600015158152602001600073ffffffffffffffffffffffffffffffffffffffff1681526020016000815260200160008152602001600067ffffffffffffffff168152602001600067ffffffffffffffff168152602001600067ffffffffffffffff168152602001600015158152602001600081525090565b6000604051905090565b600080fd5b60007fffffffff0000000000000000000000000000000000000000000000000000000082169050919050565b6120e2816120ad565b81146120ed57600080fd5b50565b6000813590506120ff816120d9565b92915050565b60006020828403121561211b5761211a6120a8565b5b6000612129848285016120f0565b91505092915050565b60008115159050919050565b61214781612132565b82525050565b6000602082019050612162600083018461213e565b92915050565b6000819050919050565b61217b81612168565b82525050565b60006020820190506121966000830184612172565b92915050565b600073ffffffffffffffffffffffffffffffffffffffff82169050919050565b60006121c78261219c565b9050919050565b6121d7816121bc565b81146121e257600080fd5b50565b6000813590506121f4816121ce565b92915050565b61220381612168565b811461220e57600080fd5b50565b600081359050612220816121fa565b92915050565b6000806040838503121561223d5761223c6120a8565b5b600061224b858286016121e5565b925050602061225c85828601612211565b9150509250929050565b6000819050919050565b61227981612266565b82525050565b60006020820190506122946000830184612270565b92915050565b6122a381612266565b81146122ae57600080fd5b50565b6000813590506122c08161229a565b92915050565b6000602082840312156122dc576122db6120a8565b5b60006122ea848285016122b1565b91505092915050565b600060208284031215612309576123086120a8565b5b600061231784828501612211565b91505092915050565b60008060408385031215612337576123366120a8565b5b6000612345858286016122b1565b9250506020612356858286016121e5565b9150509250929050565b600060208284031215612376576123756120a8565b5b6000612384848285016121e5565b91505092915050565b600067ffffffffffffffff82169050919050565b6123aa8161238d565b81146123b557600080fd5b50565b6000813590506123c7816123a1565b92915050565b600080600080600060a086880312156123e9576123e86120a8565b5b60006123f7888289016121e5565b955050602061240888828901612211565b9450506040612419888289016123b8565b935050606061242a888289016123b8565b925050608061243b888289016123b8565b9150509295509295909350565b600080fd5b6000601f19601f8301169050919050565b7f4e487b7100000000000000000000000000000000000000000000000000000000600052604160045260246000fd5b6124968261244d565b810181811067ffffffffffffffff821117156124b5576124b461245e565b5b80604052505050565b60006124c861209e565b90506124d4828261248d565b919050565b6124e281612132565b81146124ed57600080fd5b50565b6000813590506124ff816124d9565b92915050565b6000610120828403121561251c5761251b612448565b5b6125276101206124be565b90506000612537848285016124f0565b600083015250602061254b848285016121e5565b602083015250604061255f84828501612211565b604083015250606061257384828501612211565b6060830152506080612587848285016123b8565b60808301525060a061259b848285016123b8565b60a08301525060c06125af848285016123b8565b60c08301525060e06125c3848285016124f0565b60e0830152506101006125d884828501612211565b6101008301525092915050565b600061012082840312156125fc576125fb6120a8565b5b600061260a84828501612505565b91505092915050565b61261c81612132565b82525050565b61262b816121bc565b82525050565b61263a81612168565b82525050565b6126498161238d565b82525050565b610120820160008201516126666000850182612613565b5060208201516126796020850182612622565b50604082015161268c6040850182612631565b50606082015161269f6060850182612631565b5060808201516126b26080850182612640565b5060a08201516126c560a0850182612640565b5060c08201516126d860c0850182612640565b5060e08201516126eb60e0850182612613565b50610100820151612700610100850182612631565b50505050565b60006101208201905061271c600083018461264f565b92915050565b6000819050919050565b600061274761274261273d8461219c565b612722565b61219c565b9050919050565b60006127598261272c565b9050919050565b600061276b8261274e565b9050919050565b61277b81612760565b82525050565b60006020820190506127966000830184612772565b92915050565b600082825260208201905092915050565b7f4e6f7420656e6f756768206672656520746f6b656e7300000000000000000000600082015250565b60006127e360168361279c565b91506127ee826127ad565b602082019050919050565b60006020820190508181036000830152612812816127d6565b9050919050565b7f43616e6e6f742072656e6f756e63652061646d696e20726f6c65000000000000600082015250565b600061284f601a8361279c565b915061285a82612819565b602082019050919050565b6000602082019050818103600083015261287e81612842565b9050919050565b7f496e76616c69642076657374696e670000000000000000000000000000000000600082015250565b60006128bb600f8361279c565b91506128c682612885565b602082019050919050565b600060208201905081810360008301526128ea816128ae565b9050919050565b7f4f6e6c792062656e65666963696172792063616e2072656c6561736500000000600082015250565b6000612927601c8361279c565b9150612932826128f1565b602082019050919050565b600060208201905081810360008301526129568161291a565b9050919050565b7f56657374696e67207265766f6b656420616e64206e6f20746f6b656e73206c6560008201527f667420746f20636c61696d000000000000000000000000000000000000000000602082015250565b60006129b9602b8361279c565b91506129c48261295d565b604082019050919050565b600060208201905081810360008301526129e8816129ac565b9050919050565b7f4e6f20746f6b656e7320617661696c61626c6500000000000000000000000000600082015250565b6000612a2560138361279c565b9150612a30826129ef565b602082019050919050565b60006020820190508181036000830152612a5481612a18565b9050919050565b7f4e487b7100000000000000000000000000000000000000000000000000000000600052601160045260246000fd5b6000612a9582612168565b9150612aa083612168565b9250828201905080821115612ab857612ab7612a5b565b5b92915050565b6000612ac982612168565b9150612ad483612168565b9250828203905081811115612aec57612aeb612a5b565b5b92915050565b6000612afd82612168565b915060008203612b1057612b0f612a5b565b5b600182039050919050565b612b24816121bc565b82525050565b6000606082019050612b3f6000830186612270565b612b4c6020830185612b1b565b612b596040830184612172565b949350505050565b7f42656e65666963696172792063616e6e6f74206265207a65726f20616464726560008201527f7373000000000000000000000000000000000000000000000000000000000000602082015250565b6000612bbd60228361279c565b9150612bc882612b61565b604082019050919050565b60006020820190508181036000830152612bec81612bb0565b9050919050565b7f416d6f756e74206d7573742062652067726561746572207468616e2030000000600082015250565b6000612c29601d8361279c565b9150612c3482612bf3565b602082019050919050565b60006020820190508181036000830152612c5881612c1c565b9050919050565b7f436c696666206c6f6e676572207468616e206475726174696f6e000000000000600082015250565b6000612c95601a8361279c565b9150612ca082612c5f565b602082019050919050565b60006020820190508181036000830152612cc481612c88565b9050919050565b7f4475726174696f6e206d7573742062652067726561746572207468616e203000600082015250565b6000612d01601f8361279c565b9150612d0c82612ccb565b602082019050919050565b60006020820190508181036000830152612d3081612cf4565b9050919050565b7f4e6f7420656e6f75676820746f6b656e73000000000000000000000000000000600082015250565b6000612d6d60118361279c565b9150612d7882612d37565b602082019050919050565b60006020820190508181036000830152612d9c81612d60565b9050919050565b6000612dae8261238d565b9150612db98361238d565b9250828201905067ffffffffffffffff811115612dd957612dd8612a5b565b5b92915050565b6000612dea82612168565b91507fffffffffffffffffffffffffffffffffffffffffffffffffffffffffffffffff8203612e1c57612e1b612a5b565b5b600182019050919050565b6000612e3282612168565b9150612e3d83612168565b9250828202612e4b81612168565b91508282048414831517612e6257612e61612a5b565b5b5092915050565b7f4e487b7100000000000000000000000000000000000000000000000000000000600052601260045260246000fd5b6000612ea382612168565b9150612eae83612168565b925082612ebe57612ebd612e69565b5b828204905092915050565b6000602082019050612ede6000830184612b1b565b92915050565b600081519050612ef3816121fa565b92915050565b600060208284031215612f0f57612f0e6120a8565b5b6000612f1d84828501612ee4565b91505092915050565b7f416c7265616479207265766f6b65640000000000000000000000000000000000600082015250565b6000612f5c600f8361279c565b9150612f6782612f26565b602082019050919050565b60006020820190508181036000830152612f8b81612f4f565b9050919050565b60008160601b9050919050565b6000612faa82612f92565b9050919050565b6000612fbc82612f9f565b9050919050565b612fd4612fcf826121bc565b612fb1565b82525050565b6000819050919050565b612ff5612ff082612168565b612fda565b82525050565b60006130078285612fc3565b6014820191506130178284612fe4565b6020820191508190509392505050565b600060408201905061303c6000830185612b1b565b6130496020830184612172565b9392505050565b7f416363657373436f6e74726f6c3a2063616e206f6e6c792072656e6f756e636560008201527f20726f6c657320666f722073656c660000000000000000000000000000000000602082015250565b60006130ac602f8361279c565b91506130b782613050565b604082019050919050565b600060208201905081810360008301526130db8161309f565b9050919050565b7f5265656e7472616e637947756172643a207265656e7472616e742063616c6c00600082015250565b6000613118601f8361279c565b9150613123826130e2565b602082019050919050565b600060208201905081810360008301526131478161310b565b9050919050565b600081905092915050565b7f416363657373436f6e74726f6c3a206163636f756e7420000000000000000000600082015250565b600061318f60178361314e565b915061319a82613159565b601782019050919050565b600081519050919050565b60005b838110156131ce5780820151818401526020810190506131b3565b60008484015250505050565b60006131e5826131a5565b6131ef818561314e565b93506131ff8185602086016131b0565b80840191505092915050565b7f206973206d697373696e6720726f6c6520000000000000000000000000000000600082015250565b600061324160118361314e565b915061324c8261320b565b601182019050919050565b600061326282613182565b915061326e82856131da565b915061327982613234565b915061328582846131da565b91508190509392505050565b600061329c826131a5565b6132a6818561279c565b93506132b68185602086016131b0565b6132bf8161244d565b840191505092915050565b600060208201905081810360008301526132e48184613291565b905092915050565b6000815190506132fb816124d9565b92915050565b600060208284031215613317576133166120a8565b5b6000613325848285016132ec565b91505092915050565b7f5361666545524332303a204552433230206f7065726174696f6e20646964206e60008201527f6f74207375636365656400000000000000000000000000000000000000000000602082015250565b600061338a602a8361279c565b91506133958261332e565b604082019050919050565b600060208201905081810360008301526133b98161337d565b9050919050565b7f4e487b7100000000000000000000000000000000000000000000000000000000600052603260045260246000fd5b7f537472696e67733a20686578206c656e67746820696e73756666696369656e74600082015250565b600061342560208361279c565b9150613430826133ef565b602082019050919050565b6000602082019050818103600083015261345481613418565b9050919050565b7f416464726573733a20696e73756666696369656e742062616c616e636520666f60008201527f722063616c6c0000000000000000000000000000000000000000000000000000602082015250565b60006134b760268361279c565b91506134c28261345b565b604082019050919050565b600060208201905081810360008301526134e6816134aa565b9050919050565b600081519050919050565b600081905092915050565b600061350e826134ed565b61351881856134f8565b93506135288185602086016131b0565b80840191505092915050565b60006135408284613503565b915081905092915050565b7f416464726573733a2063616c6c20746f206e6f6e2d636f6e7472616374000000600082015250565b6000613581601d8361279c565b915061358c8261354b565b602082019050919050565b600060208201905081810360008301526135b081613574565b905091905056fea26469706673582212201f6b7068680bd6973b6a4fc23522061497bab14ae49286efbc0c32741411c96164736f6c63430008130033",
  "linkReferences": {},
  "deployedLinkReferences": {}
}