{
  "_format": "hh-sol-artifact-1",
  "contractName": "TokenVesting",
  "sourceName": "contracts/TokenVesting.sol",
  "abi": [
    {
      "inputs": [
        {
          "internalType": "address",
          "name": "tokenAddress",
          "type": "address"
        }
      ],
      "stateMutability": "nonpayable",
      "type": "constructor"
    },
    {
      "anonymous": false,
      "inputs": [
        {
          "indexed": true,
          "internalType": "bytes32",
          "name": "role",
          "type": "bytes32"
        },
        {
          "indexed": true,
          "internalType": "bytes32",
          "name": "previousAdminRole",
          "type": "bytes32"
        },
        {
          "indexed": true,
          "internalType": "bytes32",
          "name": "newAdminRole",
          "type": "bytes32"
        }
      ],
      "name": "RoleAdminChanged",
      "type": "event"
    },
    {
      "anonymous": false,
      "inputs": [
        {
          "indexed": true,
          "internalType": "bytes32",
          "name": "role",
          "type": "bytes32"
        },
        {
          "indexed": true,
          "internalType": "address",
          "name": "account",
          "type": "address"
        },
        {
          "indexed": true,
          "internalType": "address",
          "name": "sender",
          "type": "address"
        }
      ],
      "name": "RoleGranted",
      "type": "event"
    },
    {
      "anonymous": false,
      "inputs": [
        {
          "indexed": true,
          "internalType": "bytes32",
          "name": "role",
          "type": "bytes32"
        },
        {
          "indexed": true,
          "internalType": "address",
          "name": "account",
          "type": "address"
        },
        {
          "indexed": true,
          "internalType": "address",
          "name": "sender",
          "type": "address"
        }
      ],
      "name": "RoleRevoked",
      "type": "event"
    },
    {
      "anonymous": false,
      "inputs": [
        {
          "indexed": false,
          "internalType": "bytes32",
          "name": "vestingId",
          "type": "bytes32"
        },
        {
          "indexed": false,
          "internalType": "address",
          "name": "beneficiary",
          "type": "address"
        },
        {
          "indexed": false,
          "internalType": "uint256",
          "name": "amount",
          "type": "uint256"
        }
      ],
      "name": "TokensReleased",
      "type": "event"
    },
    {
      "anonymous": false,
      "inputs": [
        {
          "indexed": false,
          "internalType": "bytes32",
          "name": "vestingId",
          "type": "bytes32"
        },
        {
          "indexed": false,
          "internalType": "address",
          "name": "beneficiary",
          "type": "address"
        },
        {
          "indexed": false,
          "internalType": "uint256",
          "name": "returnedAmount",
          "type": "uint256"
        }
      ],
      "name": "VestingRevoked",
      "type": "event"
    },
    {
      "anonymous": false,
      "inputs": [
        {
          "indexed": false,
          "internalType": "bytes32",
          "name": "vestingId",
          "type": "bytes32"
        },
        {
          "indexed": false,
          "internalType": "address",
          "name": "beneficiary",
          "type": "address"
        },
        {
          "indexed": false,
          "internalType": "uint256",
          "name": "amount",
          "type": "uint256"
        }
      ],
      "name": "VestingScheduleCreated",
      "type": "event"
    },
    {
      "inputs": [],
      "name": "ADMIN_ROLE",
      "outputs": [
        {
          "internalType": "bytes32",
          "name": "",
          "type": "bytes32"
        }
      ],
      "stateMutability": "view",
      "type": "function"
    },
    {
      "inputs": [],
      "name": "DEFAULT_ADMIN_ROLE",
      "outputs": [
        {
          "internalType": "bytes32",
          "name": "",
          "type": "bytes32"
        }
      ],
      "stateMutability": "view",
      "type": "function"
    },
    {
      "inputs": [
        {
          "components": [
            {
              "internalType": "bool",
              "name": "initialized",
              "type": "bool"
            },
            {
              "internalType": "address",
              "name": "beneficiary",
              "type": "address"
            },
            {
              "internalType": "uint256",
              "name": "totalAmount",
              "type": "uint256"
            },
            {
              "internalType": "uint256",
              "name": "released",
              "type": "uint256"
            },
            {
              "internalType": "uint64",
              "name": "start",
              "type": "uint64"
            },
            {
              "internalType": "uint64",
              "name": "cliff",
              "type": "uint64"
            },
            {
              "internalType": "uint64",
              "name": "duration",
              "type": "uint64"
            },
            {
              "internalType": "bool",
              "name": "revoked",
              "type": "bool"
            }
          ],
          "internalType": "struct TokenVesting.VestingSchedule",
          "name": "schedule",
          "type": "tuple"
        }
      ],
      "name": "computeReleasableAmount",
      "outputs": [
        {
          "internalType": "uint256",
          "name": "",
          "type": "uint256"
        }
      ],
      "stateMutability": "view",
      "type": "function"
    },
    {
      "inputs": [
        {
          "internalType": "address",
          "name": "holder",
          "type": "address"
        },
        {
          "internalType": "uint256",
          "name": "index",
          "type": "uint256"
        }
      ],
      "name": "computeVestingIdForAddressAndIndex",
      "outputs": [
        {
          "internalType": "bytes32",
          "name": "",
          "type": "bytes32"
        }
      ],
      "stateMutability": "pure",
      "type": "function"
    },
    {
      "inputs": [
        {
          "internalType": "address",
          "name": "beneficiary",
          "type": "address"
        },
        {
          "internalType": "uint256",
          "name": "amount",
          "type": "uint256"
        },
        {
          "internalType": "uint64",
          "name": "start",
          "type": "uint64"
        },
        {
          "internalType": "uint64",
          "name": "cliffDuration",
          "type": "uint64"
        },
        {
          "internalType": "uint64",
          "name": "duration",
          "type": "uint64"
        }
      ],
      "name": "createVestingSchedule",
      "outputs": [],
      "stateMutability": "nonpayable",
      "type": "function"
    },
    {
      "inputs": [
        {
          "internalType": "bytes32",
          "name": "role",
          "type": "bytes32"
        }
      ],
      "name": "getRoleAdmin",
      "outputs": [
        {
          "internalType": "bytes32",
          "name": "",
          "type": "bytes32"
        }
      ],
      "stateMutability": "view",
      "type": "function"
    },
    {
      "inputs": [
        {
          "internalType": "address",
          "name": "holder",
          "type": "address"
        },
        {
          "internalType": "uint256",
          "name": "index",
          "type": "uint256"
        }
      ],
      "name": "getVestingIdAtIndex",
      "outputs": [
        {
          "internalType": "bytes32",
          "name": "",
          "type": "bytes32"
        }
      ],
      "stateMutability": "pure",
      "type": "function"
    },
    {
      "inputs": [
        {
          "internalType": "bytes32",
          "name": "vestingId",
          "type": "bytes32"
        }
      ],
      "name": "getVestingSchedule",
      "outputs": [
        {
          "components": [
            {
              "internalType": "bool",
              "name": "initialized",
              "type": "bool"
            },
            {
              "internalType": "address",
              "name": "beneficiary",
              "type": "address"
            },
            {
              "internalType": "uint256",
              "name": "totalAmount",
              "type": "uint256"
            },
            {
              "internalType": "uint256",
              "name": "released",
              "type": "uint256"
            },
            {
              "internalType": "uint64",
              "name": "start",
              "type": "uint64"
            },
            {
              "internalType": "uint64",
              "name": "cliff",
              "type": "uint64"
            },
            {
              "internalType": "uint64",
              "name": "duration",
              "type": "uint64"
            },
            {
              "internalType": "bool",
              "name": "revoked",
              "type": "bool"
            }
          ],
          "internalType": "struct TokenVesting.VestingSchedule",
          "name": "",
          "type": "tuple"
        }
      ],
      "stateMutability": "view",
      "type": "function"
    },
    {
      "inputs": [],
      "name": "getWithdrawableAmount",
      "outputs": [
        {
          "internalType": "uint256",
          "name": "",
          "type": "uint256"
        }
      ],
      "stateMutability": "view",
      "type": "function"
    },
    {
      "inputs": [
        {
          "internalType": "bytes32",
          "name": "role",
          "type": "bytes32"
        },
        {
          "internalType": "address",
          "name": "account",
          "type": "address"
        }
      ],
      "name": "grantRole",
      "outputs": [],
      "stateMutability": "nonpayable",
      "type": "function"
    },
    {
      "inputs": [
        {
          "internalType": "bytes32",
          "name": "role",
          "type": "bytes32"
        },
        {
          "internalType": "address",
          "name": "account",
          "type": "address"
        }
      ],
      "name": "hasRole",
      "outputs": [
        {
          "internalType": "bool",
          "name": "",
          "type": "bool"
        }
      ],
      "stateMutability": "view",
      "type": "function"
    },
    {
      "inputs": [
        {
          "internalType": "address",
          "name": "",
          "type": "address"
        }
      ],
      "name": "holdersVestingCount",
      "outputs": [
        {
          "internalType": "uint256",
          "name": "",
          "type": "uint256"
        }
      ],
      "stateMutability": "view",
      "type": "function"
    },
    {
      "inputs": [
        {
          "internalType": "bytes32",
          "name": "vestingId",
          "type": "bytes32"
        }
      ],
      "name": "release",
      "outputs": [],
      "stateMutability": "nonpayable",
      "type": "function"
    },
    {
      "inputs": [
        {
          "internalType": "bytes32",
          "name": "role",
          "type": "bytes32"
        },
        {
          "internalType": "address",
          "name": "account",
          "type": "address"
        }
      ],
      "name": "renounceRole",
      "outputs": [],
      "stateMutability": "nonpayable",
      "type": "function"
    },
    {
      "inputs": [
        {
          "internalType": "bytes32",
          "name": "vestingId",
          "type": "bytes32"
        }
      ],
      "name": "revoke",
      "outputs": [],
      "stateMutability": "nonpayable",
      "type": "function"
    },
    {
      "inputs": [
        {
          "internalType": "bytes32",
          "name": "role",
          "type": "bytes32"
        },
        {
          "internalType": "address",
          "name": "account",
          "type": "address"
        }
      ],
      "name": "revokeRole",
      "outputs": [],
      "stateMutability": "nonpayable",
      "type": "function"
    },
    {
      "inputs": [
        {
          "internalType": "bytes4",
          "name": "interfaceId",
          "type": "bytes4"
        }
      ],
      "name": "supportsInterface",
      "outputs": [
        {
          "internalType": "bool",
          "name": "",
          "type": "bool"
        }
      ],
      "stateMutability": "view",
      "type": "function"
    },
    {
      "inputs": [],
      "name": "token",
      "outputs": [
        {
          "internalType": "contract IERC20",
          "name": "",
          "type": "address"
        }
      ],
      "stateMutability": "view",
      "type": "function"
    },
    {
      "inputs": [],
      "name": "vestingSchedulesCount",
      "outputs": [
        {
          "internalType": "uint256",
          "name": "",
          "type": "uint256"
        }
      ],
      "stateMutability": "view",
      "type": "function"
    },
    {
      "inputs": [],
      "name": "vestingSchedulesTotalAmount",
      "outputs": [
        {
          "internalType": "uint256",
          "name": "",
          "type": "uint256"
        }
      ],
      "stateMutability": "view",
      "type": "function"
    },
    {
      "inputs": [
        {
          "internalType": "uint256",
          "name": "amount",
          "type": "uint256"
        }
      ],
      "name": "withdraw",
      "outputs": [],
      "stateMutability": "nonpayable",
      "type": "function"
    }
  ],
  "bytecode": "0x60a06040523480156200001157600080fd5b50604051620037a6380380620037a683398181016040528101906200003791906200028d565b600180819055508073ffffffffffffffffffffffffffffffffffffffff1660808173ffffffffffffffffffffffffffffffffffffffff1681525050620000876000801b33620000c060201b60201c565b620000b97fa49807205ce4d355092ef5a8a18f56e8913cf4a201fbe287825b095693c2177533620000c060201b60201c565b50620002bf565b620000d28282620001b160201b60201c565b620001ad57600160008084815260200190815260200160002060000160008373ffffffffffffffffffffffffffffffffffffffff1673ffffffffffffffffffffffffffffffffffffffff16815260200190815260200160002060006101000a81548160ff021916908315150217905550620001526200021b60201b60201c565b73ffffffffffffffffffffffffffffffffffffffff168173ffffffffffffffffffffffffffffffffffffffff16837f2f8788117e7eff1d82e926ec794901d17c78024a50270940304540a733656f0d60405160405180910390a45b5050565b600080600084815260200190815260200160002060000160008373ffffffffffffffffffffffffffffffffffffffff1673ffffffffffffffffffffffffffffffffffffffff16815260200190815260200160002060009054906101000a900460ff16905092915050565b600033905090565b600080fd5b600073ffffffffffffffffffffffffffffffffffffffff82169050919050565b6000620002558262000228565b9050919050565b620002678162000248565b81146200027357600080fd5b50565b60008151905062000287816200025c565b92915050565b600060208284031215620002a657620002a562000223565b5b6000620002b68482850162000276565b91505092915050565b6080516134b6620002f06000396000818161063001528181610a7201528181610ff201526115c801526134b66000f3fe608060405234801561001057600080fd5b50600436106101375760003560e01c806375b238fc116100b8578063a217fddf1161007c578063a217fddf14610372578063b75c7dc614610390578063c741d92f146103ac578063d547741f146103ca578063e5fe4dff146103e6578063fc0c546a1461041657610137565b806375b238fc146102b857806390be10cc146102d657806391d14854146102f45780639d8535ad146103245780639ef346b41461034257610137565b80632f2ff15d116100ff5780632f2ff15d1461021857806336568abe14610234578063471121d11461025057806367d42a8b1461028057806374d424101461029c57610137565b806301ffc9a71461013c57806319cf0a941461016c578063233b68c51461019c578063248a9ca3146101cc5780632e1a7d4d146101fc575b600080fd5b61015660048036038101906101519190611ff9565b610434565b6040516101639190612041565b60405180910390f35b610186600480360381019061018191906120f0565b6104ae565b6040516101939190612149565b60405180910390f35b6101b660048036038101906101b1919061232b565b6104c2565b6040516101c39190612368565b60405180910390f35b6101e660048036038101906101e191906123af565b610596565b6040516101f39190612149565b60405180910390f35b610216600480360381019061021191906123dc565b6105b5565b005b610232600480360381019061022d9190612409565b610678565b005b61024e60048036038101906102499190612409565b610699565b005b61026a60048036038101906102659190612449565b6106ec565b6040516102779190612368565b60405180910390f35b61029a600480360381019061029591906123af565b610704565b005b6102b660048036038101906102b19190612476565b610b22565b005b6102c0610fc7565b6040516102cd9190612149565b60405180910390f35b6102de610feb565b6040516102eb9190612368565b60405180910390f35b61030e60048036038101906103099190612409565b611099565b60405161031b9190612041565b60405180910390f35b61032c611103565b6040516103399190612368565b60405180910390f35b61035c600480360381019061035791906123af565b611109565b60405161036991906125cf565b60405180910390f35b61037a61126d565b6040516103879190612149565b60405180910390f35b6103aa60048036038101906103a591906123af565b611274565b005b6103b461156c565b6040516103c19190612368565b60405180910390f35b6103e460048036038101906103df9190612409565b611572565b005b61040060048036038101906103fb91906120f0565b611593565b60405161040d9190612149565b60405180910390f35b61041e6115c6565b60405161042b919061264a565b60405180910390f35b60007f7965db0b000000000000000000000000000000000000000000000000000000007bffffffffffffffffffffffffffffffffffffffffffffffffffffffff1916827bffffffffffffffffffffffffffffffffffffffffffffffffffffffff191614806104a757506104a6826115ea565b5b9050919050565b60006104ba8383611593565b905092915050565b60008160a0015167ffffffffffffffff164210156104e35760009050610591565b8160c0015182608001516104f79190612694565b67ffffffffffffffff164210610522578160600151826040015161051b91906126d0565b9050610591565b60008260c0015167ffffffffffffffff16836080015167ffffffffffffffff164261054d91906126d0565b846040015161055c9190612704565b6105669190612775565b90508260600151811161057d576000915050610591565b82606001518161058d91906126d0565b9150505b919050565b6000806000838152602001908152602001600020600101549050919050565b7fa49807205ce4d355092ef5a8a18f56e8913cf4a201fbe287825b095693c217756105df81611654565b816105e8610feb565b1015610629576040517f08c379a000000000000000000000000000000000000000000000000000000000815260040161062090612803565b60405180910390fd5b61067433837f000000000000000000000000000000000000000000000000000000000000000073ffffffffffffffffffffffffffffffffffffffff166116689092919063ffffffff16565b5050565b61068182610596565b61068a81611654565b61069483836116ee565b505050565b6000801b82036106de576040517f08c379a00000000000000000000000000000000000000000000000000000000081526004016106d59061286f565b60405180910390fd5b6106e882826117ce565b5050565b60056020528060005260406000206000915090505481565b61070c611851565b60006004600083815260200190815260200160002090508060000160009054906101000a900460ff16610774576040517f08c379a000000000000000000000000000000000000000000000000000000000815260040161076b906128db565b60405180910390fd5b8060000160019054906101000a900473ffffffffffffffffffffffffffffffffffffffff1673ffffffffffffffffffffffffffffffffffffffff163373ffffffffffffffffffffffffffffffffffffffff1614610806576040517f08c379a00000000000000000000000000000000000000000000000000000000081526004016107fd90612947565b60405180910390fd5b8060030160189054906101000a900460ff16158061082b575080600101548160020154105b61086a576040517f08c379a0000000000000000000000000000000000000000000000000000000008152600401610861906129d9565b60405180910390fd5b60006109b782604051806101000160405290816000820160009054906101000a900460ff161515151581526020016000820160019054906101000a900473ffffffffffffffffffffffffffffffffffffffff1673ffffffffffffffffffffffffffffffffffffffff1673ffffffffffffffffffffffffffffffffffffffff16815260200160018201548152602001600282015481526020016003820160009054906101000a900467ffffffffffffffff1667ffffffffffffffff1667ffffffffffffffff1681526020016003820160089054906101000a900467ffffffffffffffff1667ffffffffffffffff1667ffffffffffffffff1681526020016003820160109054906101000a900467ffffffffffffffff1667ffffffffffffffff1667ffffffffffffffff1681526020016003820160189054906101000a900460ff1615151515815250506104c2565b9050600081116109fc576040517f08c379a00000000000000000000000000000000000000000000000000000000081526004016109f390612a45565b60405180910390fd5b80826002016000828254610a109190612a65565b925050819055508160030160189054906101000a900460ff16610a47578060026000828254610a3f91906126d0565b925050819055505b610ab68260000160019054906101000a900473ffffffffffffffffffffffffffffffffffffffff16827f000000000000000000000000000000000000000000000000000000000000000073ffffffffffffffffffffffffffffffffffffffff166116689092919063ffffffff16565b7f62eb4bd96d9a7a66875a9f46f9f9d8bf6cfed3fe0578671b752301427d2a4f66838360000160019054906101000a900473ffffffffffffffffffffffffffffffffffffffff1683604051610b0d93929190612aa8565b60405180910390a15050610b1f6118a0565b50565b7fa49807205ce4d355092ef5a8a18f56e8913cf4a201fbe287825b095693c21775610b4c81611654565b600073ffffffffffffffffffffffffffffffffffffffff168673ffffffffffffffffffffffffffffffffffffffff1603610bbb576040517f08c379a0000000000000000000000000000000000000000000000000000000008152600401610bb290612b51565b60405180910390fd5b60008511610bfe576040517f08c379a0000000000000000000000000000000000000000000000000000000008152600401610bf590612bbd565b60405180910390fd5b8167ffffffffffffffff168367ffffffffffffffff161115610c55576040517f08c379a0000000000000000000000000000000000000000000000000000000008152600401610c4c90612c29565b60405180910390fd5b60008267ffffffffffffffff1611610ca2576040517f08c379a0000000000000000000000000000000000000000000000000000000008152600401610c9990612c95565b60405180910390fd5b84610cab610feb565b1015610cec576040517f08c379a0000000000000000000000000000000000000000000000000000000008152600401610ce390612d01565b60405180910390fd5b6000610d3787600560008a73ffffffffffffffffffffffffffffffffffffffff1673ffffffffffffffffffffffffffffffffffffffff16815260200190815260200160002054611593565b905060008486610d479190612694565b90506040518061010001604052806001151581526020018973ffffffffffffffffffffffffffffffffffffffff168152602001888152602001600081526020018767ffffffffffffffff1681526020018267ffffffffffffffff1681526020018567ffffffffffffffff168152602001600015158152506004600084815260200190815260200160002060008201518160000160006101000a81548160ff02191690831515021790555060208201518160000160016101000a81548173ffffffffffffffffffffffffffffffffffffffff021916908373ffffffffffffffffffffffffffffffffffffffff160217905550604082015181600101556060820151816002015560808201518160030160006101000a81548167ffffffffffffffff021916908367ffffffffffffffff16021790555060a08201518160030160086101000a81548167ffffffffffffffff021916908367ffffffffffffffff16021790555060c08201518160030160106101000a81548167ffffffffffffffff021916908367ffffffffffffffff16021790555060e08201518160030160186101000a81548160ff0219169083151502179055509050508660026000828254610f0e9190612a65565b9250508190555060036000815480929190610f2890612d21565b9190505550600560008973ffffffffffffffffffffffffffffffffffffffff1673ffffffffffffffffffffffffffffffffffffffff1681526020019081526020016000206000815480929190610f7d90612d21565b91905055507ff4173b3b3302c4359c3dd6c9d18f24e03d01b04fb8edd7c3519df6ae162ad839828989604051610fb593929190612aa8565b60405180910390a15050505050505050565b7fa49807205ce4d355092ef5a8a18f56e8913cf4a201fbe287825b095693c2177581565b60006002547f000000000000000000000000000000000000000000000000000000000000000073ffffffffffffffffffffffffffffffffffffffff166370a08231306040518263ffffffff1660e01b81526004016110499190612d69565b602060405180830381865afa158015611066573d6000803e3d6000fd5b505050506040513d601f19601f8201168201806040525081019061108a9190612d99565b61109491906126d0565b905090565b600080600084815260200190815260200160002060000160008373ffffffffffffffffffffffffffffffffffffffff1673ffffffffffffffffffffffffffffffffffffffff16815260200190815260200160002060009054906101000a900460ff16905092915050565b60025481565b611111611f15565b60046000838152602001908152602001600020604051806101000160405290816000820160009054906101000a900460ff161515151581526020016000820160019054906101000a900473ffffffffffffffffffffffffffffffffffffffff1673ffffffffffffffffffffffffffffffffffffffff1673ffffffffffffffffffffffffffffffffffffffff16815260200160018201548152602001600282015481526020016003820160009054906101000a900467ffffffffffffffff1667ffffffffffffffff1667ffffffffffffffff1681526020016003820160089054906101000a900467ffffffffffffffff1667ffffffffffffffff1667ffffffffffffffff1681526020016003820160109054906101000a900467ffffffffffffffff1667ffffffffffffffff1667ffffffffffffffff1681526020016003820160189054906101000a900460ff1615151515815250509050919050565b6000801b81565b7fa49807205ce4d355092ef5a8a18f56e8913cf4a201fbe287825b095693c2177561129e81611654565b60006004600084815260200190815260200160002090508060000160009054906101000a900460ff16611306576040517f08c379a00000000000000000000000000000000000000000000000000000000081526004016112fd906128db565b60405180910390fd5b8060030160189054906101000a900460ff1615611358576040517f08c379a000000000000000000000000000000000000000000000000000000000815260040161134f90612e12565b60405180910390fd5b60006114a582604051806101000160405290816000820160009054906101000a900460ff161515151581526020016000820160019054906101000a900473ffffffffffffffffffffffffffffffffffffffff1673ffffffffffffffffffffffffffffffffffffffff1673ffffffffffffffffffffffffffffffffffffffff16815260200160018201548152602001600282015481526020016003820160009054906101000a900467ffffffffffffffff1667ffffffffffffffff1667ffffffffffffffff1681526020016003820160089054906101000a900467ffffffffffffffff1667ffffffffffffffff1667ffffffffffffffff1681526020016003820160109054906101000a900467ffffffffffffffff1667ffffffffffffffff1667ffffffffffffffff1681526020016003820160189054906101000a900460ff1615151515815250506104c2565b905060008183600201546114b99190612a65565b905060008184600101546114cd91906126d0565b905080600260008282546114e191906126d0565b9250508190555060018460030160186101000a81548160ff0219169083151502179055507f9f6990fedd76aa384441d613ac4a0b0283e170692cedbe183d00c41c22ba9832868560000160019054906101000a900473ffffffffffffffffffffffffffffffffffffffff168360405161155c93929190612aa8565b60405180910390a1505050505050565b60035481565b61157b82610596565b61158481611654565b61158e83836118a9565b505050565b600082826040516020016115a8929190612e9b565b60405160208183030381529060405280519060200120905092915050565b7f000000000000000000000000000000000000000000000000000000000000000081565b60007f01ffc9a7000000000000000000000000000000000000000000000000000000007bffffffffffffffffffffffffffffffffffffffffffffffffffffffff1916827bffffffffffffffffffffffffffffffffffffffffffffffffffffffff1916149050919050565b6116658161166061198a565b611992565b50565b6116e98363a9059cbb60e01b8484604051602401611687929190612ec7565b604051602081830303815290604052907bffffffffffffffffffffffffffffffffffffffffffffffffffffffff19166020820180517bffffffffffffffffffffffffffffffffffffffffffffffffffffffff8381831617835250505050611a17565b505050565b6116f88282611099565b6117ca57600160008084815260200190815260200160002060000160008373ffffffffffffffffffffffffffffffffffffffff1673ffffffffffffffffffffffffffffffffffffffff16815260200190815260200160002060006101000a81548160ff02191690831515021790555061176f61198a565b73ffffffffffffffffffffffffffffffffffffffff168173ffffffffffffffffffffffffffffffffffffffff16837f2f8788117e7eff1d82e926ec794901d17c78024a50270940304540a733656f0d60405160405180910390a45b5050565b6117d661198a565b73ffffffffffffffffffffffffffffffffffffffff168173ffffffffffffffffffffffffffffffffffffffff1614611843576040517f08c379a000000000000000000000000000000000000000000000000000000000815260040161183a90612f62565b60405180910390fd5b61184d82826118a9565b5050565b600260015403611896576040517f08c379a000000000000000000000000000000000000000000000000000000000815260040161188d90612fce565b60405180910390fd5b6002600181905550565b60018081905550565b6118b38282611099565b1561198657600080600084815260200190815260200160002060000160008373ffffffffffffffffffffffffffffffffffffffff1673ffffffffffffffffffffffffffffffffffffffff16815260200190815260200160002060006101000a81548160ff02191690831515021790555061192b61198a565b73ffffffffffffffffffffffffffffffffffffffff168173ffffffffffffffffffffffffffffffffffffffff16837ff6391f5c32d9c69d2a47ea670b442974b53935d1edc7fd64eb21e047a839171b60405160405180910390a45b5050565b600033905090565b61199c8282611099565b611a13576119a981611adf565b6119b78360001c6020611b0c565b6040516020016119c89291906130f7565b6040516020818303038152906040526040517f08c379a0000000000000000000000000000000000000000000000000000000008152600401611a0a919061316a565b60405180910390fd5b5050565b6000611a79826040518060400160405280602081526020017f5361666545524332303a206c6f772d6c6576656c2063616c6c206661696c65648152508573ffffffffffffffffffffffffffffffffffffffff16611d489092919063ffffffff16565b9050600081511480611a9b575080806020019051810190611a9a91906131a1565b5b611ada576040517f08c379a0000000000000000000000000000000000000000000000000000000008152600401611ad190613240565b60405180910390fd5b505050565b6060611b058273ffffffffffffffffffffffffffffffffffffffff16601460ff16611b0c565b9050919050565b606060006002836002611b1f9190612704565b611b299190612a65565b67ffffffffffffffff811115611b4257611b4161217a565b5b6040519080825280601f01601f191660200182016040528015611b745781602001600182028036833780820191505090505b5090507f300000000000000000000000000000000000000000000000000000000000000081600081518110611bac57611bab613260565b5b60200101907effffffffffffffffffffffffffffffffffffffffffffffffffffffffffffff1916908160001a9053507f780000000000000000000000000000000000000000000000000000000000000081600181518110611c1057611c0f613260565b5b60200101907effffffffffffffffffffffffffffffffffffffffffffffffffffffffffffff1916908160001a90535060006001846002611c509190612704565b611c5a9190612a65565b90505b6001811115611cfa577f3031323334353637383961626364656600000000000000000000000000000000600f861660108110611c9c57611c9b613260565b5b1a60f81b828281518110611cb357611cb2613260565b5b60200101907effffffffffffffffffffffffffffffffffffffffffffffffffffffffffffff1916908160001a905350600485901c945080611cf39061328f565b9050611c5d565b5060008414611d3e576040517f08c379a0000000000000000000000000000000000000000000000000000000008152600401611d3590613304565b60405180910390fd5b8091505092915050565b6060611d578484600085611d60565b90509392505050565b606082471015611da5576040517f08c379a0000000000000000000000000000000000000000000000000000000008152600401611d9c90613396565b60405180910390fd5b6000808673ffffffffffffffffffffffffffffffffffffffff168587604051611dce91906133fd565b60006040518083038185875af1925050503d8060008114611e0b576040519150601f19603f3d011682016040523d82523d6000602084013e611e10565b606091505b5091509150611e2187838387611e2d565b92505050949350505050565b60608315611e8f576000835103611e8757611e4785611ea2565b611e86576040517f08c379a0000000000000000000000000000000000000000000000000000000008152600401611e7d90613460565b60405180910390fd5b5b829050611e9a565b611e998383611ec5565b5b949350505050565b6000808273ffffffffffffffffffffffffffffffffffffffff163b119050919050565b600082511115611ed85781518083602001fd5b806040517f08c379a0000000000000000000000000000000000000000000000000000000008152600401611f0c919061316a565b60405180910390fd5b604051806101000160405280600015158152602001600073ffffffffffffffffffffffffffffffffffffffff1681526020016000815260200160008152602001600067ffffffffffffffff168152602001600067ffffffffffffffff168152602001600067ffffffffffffffff1681526020016000151581525090565b6000604051905090565b600080fd5b60007fffffffff0000000000000000000000000000000000000000000000000000000082169050919050565b611fd681611fa1565b8114611fe157600080fd5b50565b600081359050611ff381611fcd565b92915050565b60006020828403121561200f5761200e611f9c565b5b600061201d84828501611fe4565b91505092915050565b60008115159050919050565b61203b81612026565b82525050565b60006020820190506120566000830184612032565b92915050565b600073ffffffffffffffffffffffffffffffffffffffff82169050919050565b60006120878261205c565b9050919050565b6120978161207c565b81146120a257600080fd5b50565b6000813590506120b48161208e565b92915050565b6000819050919050565b6120cd816120ba565b81146120d857600080fd5b50565b6000813590506120ea816120c4565b92915050565b6000806040838503121561210757612106611f9c565b5b6000612115858286016120a5565b9250506020612126858286016120db565b9150509250929050565b6000819050919050565b61214381612130565b82525050565b600060208201905061215e600083018461213a565b92915050565b600080fd5b6000601f19601f8301169050919050565b7f4e487b7100000000000000000000000000000000000000000000000000000000600052604160045260246000fd5b6121b282612169565b810181811067ffffffffffffffff821117156121d1576121d061217a565b5b80604052505050565b60006121e4611f92565b90506121f082826121a9565b919050565b6121fe81612026565b811461220957600080fd5b50565b60008135905061221b816121f5565b92915050565b600067ffffffffffffffff82169050919050565b61223e81612221565b811461224957600080fd5b50565b60008135905061225b81612235565b92915050565b6000610100828403121561227857612277612164565b5b6122836101006121da565b905060006122938482850161220c565b60008301525060206122a7848285016120a5565b60208301525060406122bb848285016120db565b60408301525060606122cf848285016120db565b60608301525060806122e38482850161224c565b60808301525060a06122f78482850161224c565b60a08301525060c061230b8482850161224c565b60c08301525060e061231f8482850161220c565b60e08301525092915050565b6000610100828403121561234257612341611f9c565b5b600061235084828501612261565b91505092915050565b612362816120ba565b82525050565b600060208201905061237d6000830184612359565b92915050565b61238c81612130565b811461239757600080fd5b50565b6000813590506123a981612383565b92915050565b6000602082840312156123c5576123c4611f9c565b5b60006123d38482850161239a565b91505092915050565b6000602082840312156123f2576123f1611f9c565b5b6000612400848285016120db565b91505092915050565b600080604083850312156124205761241f611f9c565b5b600061242e8582860161239a565b925050602061243f858286016120a5565b9150509250929050565b60006020828403121561245f5761245e611f9c565b5b600061246d848285016120a5565b91505092915050565b600080600080600060a0868803121561249257612491611f9c565b5b60006124a0888289016120a5565b95505060206124b1888289016120db565b94505060406124c28882890161224c565b93505060606124d38882890161224c565b92505060806124e48882890161224c565b9150509295509295909350565b6124fa81612026565b82525050565b6125098161207c565b82525050565b612518816120ba565b82525050565b61252781612221565b82525050565b6101008201600082015161254460008501826124f1565b5060208201516125576020850182612500565b50604082015161256a604085018261250f565b50606082015161257d606085018261250f565b506080820151612590608085018261251e565b5060a08201516125a360a085018261251e565b5060c08201516125b660c085018261251e565b5060e08201516125c960e08501826124f1565b50505050565b6000610100820190506125e5600083018461252d565b92915050565b6000819050919050565b600061261061260b6126068461205c565b6125eb565b61205c565b9050919050565b6000612622826125f5565b9050919050565b600061263482612617565b9050919050565b61264481612629565b82525050565b600060208201905061265f600083018461263b565b92915050565b7f4e487b7100000000000000000000000000000000000000000000000000000000600052601160045260246000fd5b600061269f82612221565b91506126aa83612221565b9250828201905067ffffffffffffffff8111156126ca576126c9612665565b5b92915050565b60006126db826120ba565b91506126e6836120ba565b92508282039050818111156126fe576126fd612665565b5b92915050565b600061270f826120ba565b915061271a836120ba565b9250828202612728816120ba565b9150828204841483151761273f5761273e612665565b5b5092915050565b7f4e487b7100000000000000000000000000000000000000000000000000000000600052601260045260246000fd5b6000612780826120ba565b915061278b836120ba565b92508261279b5761279a612746565b5b828204905092915050565b600082825260208201905092915050565b7f4e6f7420656e6f756768206672656520746f6b656e7300000000000000000000600082015250565b60006127ed6016836127a6565b91506127f8826127b7565b602082019050919050565b6000602082019050818103600083015261281c816127e0565b9050919050565b7f43616e6e6f742072656e6f756e63652061646d696e20726f6c65000000000000600082015250565b6000612859601a836127a6565b915061286482612823565b602082019050919050565b600060208201905081810360008301526128888161284c565b9050919050565b7f496e76616c69642076657374696e670000000000000000000000000000000000600082015250565b60006128c5600f836127a6565b91506128d08261288f565b602082019050919050565b600060208201905081810360008301526128f4816128b8565b9050919050565b7f4f6e6c792062656e65666963696172792063616e2072656c6561736500000000600082015250565b6000612931601c836127a6565b915061293c826128fb565b602082019050919050565b6000602082019050818103600083015261296081612924565b9050919050565b7f56657374696e67207265766f6b656420616e64206e6f20746f6b656e73206c6560008201527f667420746f20636c61696d000000000000000000000000000000000000000000602082015250565b60006129c3602b836127a6565b91506129ce82612967565b604082019050919050565b600060208201905081810360008301526129f2816129b6565b9050919050565b7f4e6f20746f6b656e7320617661696c61626c6500000000000000000000000000600082015250565b6000612a2f6013836127a6565b9150612a3a826129f9565b602082019050919050565b60006020820190508181036000830152612a5e81612a22565b9050919050565b6000612a70826120ba565b9150612a7b836120ba565b9250828201905080821115612a9357612a92612665565b5b92915050565b612aa28161207c565b82525050565b6000606082019050612abd600083018661213a565b612aca6020830185612a99565b612ad76040830184612359565b949350505050565b7f42656e65666963696172792063616e6e6f74206265207a65726f20616464726560008201527f7373000000000000000000000000000000000000000000000000000000000000602082015250565b6000612b3b6022836127a6565b9150612b4682612adf565b604082019050919050565b60006020820190508181036000830152612b6a81612b2e565b9050919050565b7f416d6f756e74206d7573742062652067726561746572207468616e2030000000600082015250565b6000612ba7601d836127a6565b9150612bb282612b71565b602082019050919050565b60006020820190508181036000830152612bd681612b9a565b9050919050565b7f436c696666206c6f6e676572207468616e206475726174696f6e000000000000600082015250565b6000612c13601a836127a6565b9150612c1e82612bdd565b602082019050919050565b60006020820190508181036000830152612c4281612c06565b9050919050565b7f4475726174696f6e206d7573742062652067726561746572207468616e203000600082015250565b6000612c7f601f836127a6565b9150612c8a82612c49565b602082019050919050565b60006020820190508181036000830152612cae81612c72565b9050919050565b7f4e6f7420656e6f75676820746f6b656e73000000000000000000000000000000600082015250565b6000612ceb6011836127a6565b9150612cf682612cb5565b602082019050919050565b60006020820190508181036000830152612d1a81612cde565b9050919050565b6000612d2c826120ba565b91507fffffffffffffffffffffffffffffffffffffffffffffffffffffffffffffffff8203612d5e57612d5d612665565b5b600182019050919050565b6000602082019050612d7e6000830184612a99565b92915050565b600081519050612d93816120c4565b92915050565b600060208284031215612daf57612dae611f9c565b5b6000612dbd84828501612d84565b91505092915050565b7f416c7265616479207265766f6b65640000000000000000000000000000000000600082015250565b6000612dfc600f836127a6565b9150612e0782612dc6565b602082019050919050565b60006020820190508181036000830152612e2b81612def565b9050919050565b60008160601b9050919050565b6000612e4a82612e32565b9050919050565b6000612e5c82612e3f565b9050919050565b612e74612e6f8261207c565b612e51565b82525050565b6000819050919050565b612e95612e90826120ba565b612e7a565b82525050565b6000612ea78285612e63565b601482019150612eb78284612e84565b6020820191508190509392505050565b6000604082019050612edc6000830185612a99565b612ee96020830184612359565b9392505050565b7f416363657373436f6e74726f6c3a2063616e206f6e6c792072656e6f756e636560008201527f20726f6c657320666f722073656c660000000000000000000000000000000000602082015250565b6000612f4c602f836127a6565b9150612f5782612ef0565b604082019050919050565b60006020820190508181036000830152612f7b81612f3f565b9050919050565b7f5265656e7472616e637947756172643a207265656e7472616e742063616c6c00600082015250565b6000612fb8601f836127a6565b9150612fc382612f82565b602082019050919050565b60006020820190508181036000830152612fe781612fab565b9050919050565b600081905092915050565b7f416363657373436f6e74726f6c3a206163636f756e7420000000000000000000600082015250565b600061302f601783612fee565b915061303a82612ff9565b601782019050919050565b600081519050919050565b60005b8381101561306e578082015181840152602081019050613053565b60008484015250505050565b600061308582613045565b61308f8185612fee565b935061309f818560208601613050565b80840191505092915050565b7f206973206d697373696e6720726f6c6520000000000000000000000000000000600082015250565b60006130e1601183612fee565b91506130ec826130ab565b601182019050919050565b600061310282613022565b915061310e828561307a565b9150613119826130d4565b9150613125828461307a565b91508190509392505050565b600061313c82613045565b61314681856127a6565b9350613156818560208601613050565b61315f81612169565b840191505092915050565b600060208201905081810360008301526131848184613131565b905092915050565b60008151905061319b816121f5565b92915050565b6000602082840312156131b7576131b6611f9c565b5b60006131c58482850161318c565b91505092915050565b7f5361666545524332303a204552433230206f7065726174696f6e20646964206e60008201527f6f74207375636365656400000000000000000000000000000000000000000000602082015250565b600061322a602a836127a6565b9150613235826131ce565b604082019050919050565b600060208201905081810360008301526132598161321d565b9050919050565b7f4e487b7100000000000000000000000000000000000000000000000000000000600052603260045260246000fd5b600061329a826120ba565b9150600082036132ad576132ac612665565b5b600182039050919050565b7f537472696e67733a20686578206c656e67746820696e73756666696369656e74600082015250565b60006132ee6020836127a6565b91506132f9826132b8565b602082019050919050565b6000602082019050818103600083015261331d816132e1565b9050919050565b7f416464726573733a20696e73756666696369656e742062616c616e636520666f60008201527f722063616c6c0000000000000000000000000000000000000000000000000000602082015250565b60006133806026836127a6565b915061338b82613324565b604082019050919050565b600060208201905081810360008301526133af81613373565b9050919050565b600081519050919050565b600081905092915050565b60006133d7826133b6565b6133e181856133c1565b93506133f1818560208601613050565b80840191505092915050565b600061340982846133cc565b915081905092915050565b7f416464726573733a2063616c6c20746f206e6f6e2d636f6e7472616374000000600082015250565b600061344a601d836127a6565b915061345582613414565b602082019050919050565b600060208201905081810360008301526134798161343d565b905091905056fea26469706673582212204f3b4ec9d39fb3f591ec6351d18717540921c3595e06aad9a109cd183b123fc064736f6c63430008130033",
  "linkReferences": {},
  "deployedLinkReferences": {}
}